{
  "contractName": "BludContract",
  "abi": [
    {
      "anonymous": false,
      "inputs": [
        {
          "indexed": false,
          "internalType": "address",
          "name": "recipient",
          "type": "address"
        },
        {
          "indexed": false,
          "internalType": "uint256",
          "name": "bludId",
          "type": "uint256"
        }
      ],
      "name": "AddBlud",
      "type": "event"
    },
    {
      "anonymous": false,
      "inputs": [
        {
          "indexed": false,
          "internalType": "address",
          "name": "recipient",
          "type": "address"
        },
        {
          "indexed": false,
          "internalType": "uint256",
          "name": "bludId",
          "type": "uint256"
        }
      ],
      "name": "ReportBlud",
      "type": "event"
    },
    {
      "inputs": [
        {
          "internalType": "string",
          "name": "name",
          "type": "string"
        },
        {
          "internalType": "string",
          "name": "startDate",
          "type": "string"
        },
        {
          "internalType": "string",
          "name": "endDate",
          "type": "string"
        },
        {
          "internalType": "string",
          "name": "phone",
          "type": "string"
        },
        {
          "internalType": "int256",
          "name": "lat",
          "type": "int256"
        },
        {
          "internalType": "int256",
          "name": "long",
          "type": "int256"
        }
      ],
      "name": "addBlud",
      "outputs": [],
      "stateMutability": "nonpayable",
      "type": "function"
    },
    {
      "inputs": [],
      "name": "getBluds",
      "outputs": [
        {
          "components": [
            {
              "internalType": "uint256",
              "name": "id",
              "type": "uint256"
            },
            {
              "internalType": "string",
              "name": "name",
              "type": "string"
            },
            {
              "internalType": "string",
              "name": "startDate",
              "type": "string"
            },
            {
              "internalType": "string",
              "name": "endDate",
              "type": "string"
            },
            {
              "internalType": "string",
              "name": "phone",
              "type": "string"
            },
            {
              "internalType": "uint256",
              "name": "reports",
              "type": "uint256"
            },
            {
              "internalType": "int256",
              "name": "lat",
              "type": "int256"
            },
            {
              "internalType": "int256",
              "name": "long",
              "type": "int256"
            }
          ],
          "internalType": "struct BludContract.Blud[]",
          "name": "",
          "type": "tuple[]"
        }
      ],
      "stateMutability": "view",
      "type": "function",
      "constant": true
    },
    {
      "inputs": [
        {
          "internalType": "uint256",
          "name": "bludId",
          "type": "uint256"
        }
      ],
      "name": "reportBlud",
      "outputs": [],
      "stateMutability": "nonpayable",
      "type": "function"
    }
  ],
  "bytecode": "0x608060405234801561001057600080fd5b50611110806100206000396000f3fe608060405234801561001057600080fd5b50600436106100415760003560e01c80631a5ed4de1461004657806337fc5d1414610062578063e932e8271461007e575b600080fd5b610060600480360381019061005b9190610937565b61009c565b005b61007c60048036038101906100779190610a6a565b610221565b005b61008661032f565b6040516100939190610cbb565b60405180910390f35b60008080549050905060006040518061010001604052808381526020018981526020018881526020018781526020018681526020016000815260200185815260200184815250908060018154018082558091505060019003906000526020600020906008020160009091909190915060008201518160000155602082015181600101908161012a9190610ee9565b5060408201518160020190816101409190610ee9565b5060608201518160030190816101569190610ee9565b50608082015181600401908161016c9190610ee9565b5060a0820151816005015560c0820151816006015560e082015181600701555050336001600083815260200190815260200160002060006101000a81548173ffffffffffffffffffffffffffffffffffffffff021916908373ffffffffffffffffffffffffffffffffffffffff1602179055507ff654af49d3bf9b749381fce083e064159473d5863f3ffec3e9259c06a10e068e338260405161021092919061100b565b60405180910390a150505050505050565b3373ffffffffffffffffffffffffffffffffffffffff166001600083815260200190815260200160002060009054906101000a900473ffffffffffffffffffffffffffffffffffffffff1673ffffffffffffffffffffffffffffffffffffffff16036102b75760056000828154811061029d5761029c611034565b5b9060005260206000209060080201600501819055506102f3565b600081815481106102cb576102ca611034565b5b906000526020600020906008020160050160008154809291906102ed90611092565b91905055505b7fe62b91afeb04291a207200fe82d300bbb803f5918cd2ec3161db2b3c6192ae0b338260405161032492919061100b565b60405180910390a150565b60606000808054905067ffffffffffffffff811115610351576103506107d6565b5b60405190808252806020026020018201604052801561038a57816020015b610377610762565b81526020019060019003908161036f5790505b5090506000805b6000805490508110156106a8576005600082815481106103b4576103b3611034565b5b906000526020600020906008020160050154101561069557600081815481106103e0576103df611034565b5b9060005260206000209060080201604051806101000160405290816000820154815260200160018201805461041490610d0c565b80601f016020809104026020016040519081016040528092919081815260200182805461044090610d0c565b801561048d5780601f106104625761010080835404028352916020019161048d565b820191906000526020600020905b81548152906001019060200180831161047057829003601f168201915b505050505081526020016002820180546104a690610d0c565b80601f01602080910402602001604051908101604052809291908181526020018280546104d290610d0c565b801561051f5780601f106104f45761010080835404028352916020019161051f565b820191906000526020600020905b81548152906001019060200180831161050257829003601f168201915b5050505050815260200160038201805461053890610d0c565b80601f016020809104026020016040519081016040528092919081815260200182805461056490610d0c565b80156105b15780601f10610586576101008083540402835291602001916105b1565b820191906000526020600020905b81548152906001019060200180831161059457829003601f168201915b505050505081526020016004820180546105ca90610d0c565b80601f01602080910402602001604051908101604052809291908181526020018280546105f690610d0c565b80156106435780601f1061061857610100808354040283529160200191610643565b820191906000526020600020905b81548152906001019060200180831161062657829003601f168201915b50505050508152602001600582015481526020016006820154815260200160078201548152505083838061067690611092565b94508151811061068957610688611034565b5b60200260200101819052505b80806106a090611092565b915050610391565b5060008167ffffffffffffffff8111156106c5576106c46107d6565b5b6040519080825280602002602001820160405280156106fe57816020015b6106eb610762565b8152602001906001900390816106e35790505b50905060005b828110156107585783818151811061071f5761071e611034565b5b602002602001015182828151811061073a57610739611034565b5b6020026020010181905250808061075090611092565b915050610704565b5080935050505090565b60405180610100016040528060008152602001606081526020016060815260200160608152602001606081526020016000815260200160008152602001600081525090565b6000604051905090565b600080fd5b600080fd5b600080fd5b600080fd5b6000601f19601f8301169050919050565b7f4e487b7100000000000000000000000000000000000000000000000000000000600052604160045260246000fd5b61080e826107c5565b810181811067ffffffffffffffff8211171561082d5761082c6107d6565b5b80604052505050565b60006108406107a7565b905061084c8282610805565b919050565b600067ffffffffffffffff82111561086c5761086b6107d6565b5b610875826107c5565b9050602081019050919050565b82818337600083830152505050565b60006108a461089f84610851565b610836565b9050828152602081018484840111156108c0576108bf6107c0565b5b6108cb848285610882565b509392505050565b600082601f8301126108e8576108e76107bb565b5b81356108f8848260208601610891565b91505092915050565b6000819050919050565b61091481610901565b811461091f57600080fd5b50565b6000813590506109318161090b565b92915050565b60008060008060008060c08789031215610954576109536107b1565b5b600087013567ffffffffffffffff811115610972576109716107b6565b5b61097e89828a016108d3565b965050602087013567ffffffffffffffff81111561099f5761099e6107b6565b5b6109ab89828a016108d3565b955050604087013567ffffffffffffffff8111156109cc576109cb6107b6565b5b6109d889828a016108d3565b945050606087013567ffffffffffffffff8111156109f9576109f86107b6565b5b610a0589828a016108d3565b9350506080610a1689828a01610922565b92505060a0610a2789828a01610922565b9150509295509295509295565b6000819050919050565b610a4781610a34565b8114610a5257600080fd5b50565b600081359050610a6481610a3e565b92915050565b600060208284031215610a8057610a7f6107b1565b5b6000610a8e84828501610a55565b91505092915050565b600081519050919050565b600082825260208201905092915050565b6000819050602082019050919050565b610acc81610a34565b82525050565b600081519050919050565b600082825260208201905092915050565b60005b83811015610b0c578082015181840152602081019050610af1565b60008484015250505050565b6000610b2382610ad2565b610b2d8185610add565b9350610b3d818560208601610aee565b610b46816107c5565b840191505092915050565b610b5a81610901565b82525050565b600061010083016000830151610b796000860182610ac3565b5060208301518482036020860152610b918282610b18565b91505060408301518482036040860152610bab8282610b18565b91505060608301518482036060860152610bc58282610b18565b91505060808301518482036080860152610bdf8282610b18565b91505060a0830151610bf460a0860182610ac3565b5060c0830151610c0760c0860182610b51565b5060e0830151610c1a60e0860182610b51565b508091505092915050565b6000610c318383610b60565b905092915050565b6000602082019050919050565b6000610c5182610a97565b610c5b8185610aa2565b935083602082028501610c6d85610ab3565b8060005b85811015610ca95784840389528151610c8a8582610c25565b9450610c9583610c39565b925060208a01995050600181019050610c71565b50829750879550505050505092915050565b60006020820190508181036000830152610cd58184610c46565b905092915050565b7f4e487b7100000000000000000000000000000000000000000000000000000000600052602260045260246000fd5b60006002820490506001821680610d2457607f821691505b602082108103610d3757610d36610cdd565b5b50919050565b60008190508160005260206000209050919050565b60006020601f8301049050919050565b600082821b905092915050565b600060088302610d9f7fffffffffffffffffffffffffffffffffffffffffffffffffffffffffffffffff82610d62565b610da98683610d62565b95508019841693508086168417925050509392505050565b6000819050919050565b6000610de6610de1610ddc84610a34565b610dc1565b610a34565b9050919050565b6000819050919050565b610e0083610dcb565b610e14610e0c82610ded565b848454610d6f565b825550505050565b600090565b610e29610e1c565b610e34818484610df7565b505050565b5b81811015610e5857610e4d600082610e21565b600181019050610e3a565b5050565b601f821115610e9d57610e6e81610d3d565b610e7784610d52565b81016020851015610e86578190505b610e9a610e9285610d52565b830182610e39565b50505b505050565b600082821c905092915050565b6000610ec060001984600802610ea2565b1980831691505092915050565b6000610ed98383610eaf565b9150826002028217905092915050565b610ef282610ad2565b67ffffffffffffffff811115610f0b57610f0a6107d6565b5b610f158254610d0c565b610f20828285610e5c565b600060209050601f831160018114610f535760008415610f41578287015190505b610f4b8582610ecd565b865550610fb3565b601f198416610f6186610d3d565b60005b82811015610f8957848901518255600182019150602085019450602081019050610f64565b86831015610fa65784890151610fa2601f891682610eaf565b8355505b6001600288020188555050505b505050505050565b600073ffffffffffffffffffffffffffffffffffffffff82169050919050565b6000610fe682610fbb565b9050919050565b610ff681610fdb565b82525050565b61100581610a34565b82525050565b60006040820190506110206000830185610fed565b61102d6020830184610ffc565b9392505050565b7f4e487b7100000000000000000000000000000000000000000000000000000000600052603260045260246000fd5b7f4e487b7100000000000000000000000000000000000000000000000000000000600052601160045260246000fd5b600061109d82610a34565b91507fffffffffffffffffffffffffffffffffffffffffffffffffffffffffffffffff82036110cf576110ce611063565b5b60018201905091905056fea26469706673582212204a15d64c8192d8574cd7aeb5b041fda3acb490558ae6da9246bd747cc3737c8564736f6c63430008110033",
  "immutableReferences": {},
  "source": "// SPDX-License-Identifier: MIT\npragma solidity >=0.4.22 <0.9.0;\n\ncontract BludContract {\n    event AddBlud(address recipient, uint256 bludId);\n    event ReportBlud(address recipient, uint256 bludId);\n\n    struct Blud {\n        uint256 id;\n        string name;\n        string startDate;\n        string endDate;\n        string phone;\n        uint256 reports;\n        int256 lat;\n        int256 long;\n    }\n\n    Blud[] private bluds;\n    mapping(uint256 => address) bludToOwner;\n\n    function addBlud(\n        string memory name,\n        string memory startDate,\n        string memory endDate,\n        string memory phone,\n        int256 lat,\n        int256 long\n    ) external {\n        uint256 bludId = bluds.length;\n        bluds.push(Blud(bludId, name, startDate, endDate, phone, 0, lat, long));\n        bludToOwner[bludId] = msg.sender;\n        emit AddBlud(msg.sender, bludId);\n    }\n\n    function getBluds() external view returns (Blud[] memory) {\n        Blud[] memory temporary = new Blud[](bluds.length);\n        uint256 counter = 0;\n\n        for (uint256 i = 0; i < bluds.length; i++) {\n            if (bluds[i].reports < 5) {\n                temporary[counter++] = bluds[i];\n            }\n        }\n\n        Blud[] memory result = new Blud[](counter);\n        for (uint256 i = 0; i < counter; i++) {\n            result[i] = temporary[i];\n        }\n\n        return result;\n    }\n\n    function reportBlud(uint256 bludId) external {\n        if (bludToOwner[bludId] == msg.sender) {\n            bluds[bludId].reports = 5;\n        } else {\n            bluds[bludId].reports++;\n        }\n        emit ReportBlud(msg.sender, bludId);\n    }\n}\n",
  "sourcePath": "C:\\Users\\panka\\Documents\\minip\\backend\\contracts\\BludContract.sol",
  "compiler": {
    "name": "solc",
    "version": "0.8.17+commit.8df45f5f.Emscripten.clang"
  },
  "schemaVersion": "3.4.11",
  "updatedAt": "2022-12-27T18:56:08.141Z",
  "networkType": "ethereum",
  "devdoc": {
    "kind": "dev",
    "methods": {},
    "version": 1
  },
  "userdoc": {
    "kind": "user",
    "methods": {},
    "version": 1
  }
}